:10028B0020202041544D454C204335312020202047
:10029B0000202020204150504C492031202020208C
:0202AB00200031
:030013000202EDF9
:0302ED00B200322A
:10010000C2001201567BFF7A02798B7F011201DD5A
:100110007BFF7A02799C7F021201DDE4F59053B0F7
:10012000FBD2AAE4FFFE0FBF00010EBE3FF8BFFFE7
:10013000F5300011E590700575900180E6E5902599
:10014000E0F59080DEE590700575908080D5E590B3
:06015000C313F59080CD01
:10023F00EFC4540FFEEF540FFF8E9053B0EBE4FE5C
:10024F000EBEFFFC43B0148F9053B0EBE4FE0EBE16
:05025F00FFFC43B01498
:010264002277
:1002CF00EF543FF59053B0EBE4FF0FBFFFFC43B08B
:0102DF00140A
:0102E00022FB
:100156007F017E001202AD7F1E7E001202AD7F037C
:100166001202CF7F037E001202AD7F031202CF7F01
:10017600017E001202AD7F031202CF7F021202CF70
:100186007F2C12023F7F0812023F7F0612023F7F3A
:100196000E12023F7F0112023F7FC87E000202ADAF
:0F01A600AB08AA09A90A8D82758300120212FF05
:1001B500EFC4540F4480F59053B0EBE4FE0EBEFF40
:1001C500FC43B014EF540F4480F59053B0EBE4FEBC
:0701D5000EBEFFFC43B01455
:0101DC002200
:10026500EF4480C4540FF59053B0EBE4FE0EBEFF8F
:10027500FC43B014EF540FF59053B0EBE4FE0EBE03
:05028500FFFC43B01472
:01028A002251
:0801DD008B088A09890AAC07AE
:1001E5007F0612023F7F1012023FBC010EE4FF1290
:1001F5000265E4FD1201A60DBD10F9BC020E7F409B
:0C020500120265E4FD1201A60DBD10F907
:0102110022CA
:1002AD00E4FDFCC3ED9FEC9E5017E4FBFA0BBB0085
:1002BD00010AE4B503F7EAB402F30DBD00010C80A9
:0102CD00E24E
:0102CE00220D
:030000000202E118
:0C02E100787FE4F6D8FD75812002010052
:10021200BB010CE58229F582E5833AF583E02250A1
:1002220006E92582F8E622BBFE06E92582F8E222EB
:0D023200E58229F582E5833AF583E4932205
:00000001FF
